{
  "_format": "hh-sol-artifact-1",
  "contractName": "RiskMonitor",
  "sourceName": "contracts/RiskMonitor.sol",
  "abi": [
    {
      "inputs": [
        {
          "internalType": "address",
          "name": "_keeper",
          "type": "address"
        }
      ],
      "stateMutability": "nonpayable",
      "type": "constructor"
    },
    {
      "inputs": [
        {
          "internalType": "address",
          "name": "owner",
          "type": "address"
        }
      ],
      "name": "OwnableInvalidOwner",
      "type": "error"
    },
    {
      "inputs": [
        {
          "internalType": "address",
          "name": "account",
          "type": "address"
        }
      ],
      "name": "OwnableUnauthorizedAccount",
      "type": "error"
    },
    {
      "anonymous": false,
      "inputs": [
        {
          "indexed": true,
          "internalType": "address",
          "name": "user",
          "type": "address"
        },
        {
          "indexed": true,
          "internalType": "bytes32",
          "name": "marketId",
          "type": "bytes32"
        },
        {
          "indexed": false,
          "internalType": "uint8",
          "name": "level",
          "type": "uint8"
        },
        {
          "indexed": false,
          "internalType": "uint256",
          "name": "timestamp",
          "type": "uint256"
        }
      ],
      "name": "AlertTriggered",
      "type": "event"
    },
    {
      "anonymous": false,
      "inputs": [
        {
          "indexed": true,
          "internalType": "address",
          "name": "oldKeeper",
          "type": "address"
        },
        {
          "indexed": true,
          "internalType": "address",
          "name": "newKeeper",
          "type": "address"
        }
      ],
      "name": "KeeperChanged",
      "type": "event"
    },
    {
      "anonymous": false,
      "inputs": [
        {
          "indexed": true,
          "internalType": "bytes32",
          "name": "marketId",
          "type": "bytes32"
        }
      ],
      "name": "MarketRegistered",
      "type": "event"
    },
    {
      "anonymous": false,
      "inputs": [
        {
          "indexed": true,
          "internalType": "address",
          "name": "previousOwner",
          "type": "address"
        },
        {
          "indexed": true,
          "internalType": "address",
          "name": "newOwner",
          "type": "address"
        }
      ],
      "name": "OwnershipTransferred",
      "type": "event"
    },
    {
      "anonymous": false,
      "inputs": [
        {
          "indexed": true,
          "internalType": "bytes32",
          "name": "marketId",
          "type": "bytes32"
        },
        {
          "indexed": false,
          "internalType": "uint8",
          "name": "level",
          "type": "uint8"
        },
        {
          "indexed": false,
          "internalType": "uint256",
          "name": "timestamp",
          "type": "uint256"
        }
      ],
      "name": "RiskUpdated",
      "type": "event"
    },
    {
      "anonymous": false,
      "inputs": [
        {
          "indexed": true,
          "internalType": "address",
          "name": "user",
          "type": "address"
        },
        {
          "indexed": true,
          "internalType": "bytes32",
          "name": "marketId",
          "type": "bytes32"
        },
        {
          "indexed": false,
          "internalType": "uint8",
          "name": "thresholdLevel",
          "type": "uint8"
        },
        {
          "indexed": false,
          "internalType": "bool",
          "name": "autoAlert",
          "type": "bool"
        }
      ],
      "name": "UserConfigUpdated",
      "type": "event"
    },
    {
      "inputs": [
        {
          "internalType": "bytes32",
          "name": "marketId",
          "type": "bytes32"
        }
      ],
      "name": "checkAndAlert",
      "outputs": [],
      "stateMutability": "nonpayable",
      "type": "function"
    },
    {
      "inputs": [],
      "name": "keeper",
      "outputs": [
        {
          "internalType": "address",
          "name": "",
          "type": "address"
        }
      ],
      "stateMutability": "view",
      "type": "function"
    },
    {
      "inputs": [
        {
          "internalType": "bytes32",
          "name": "",
          "type": "bytes32"
        }
      ],
      "name": "markets",
      "outputs": [
        {
          "internalType": "uint8",
          "name": "level",
          "type": "uint8"
        },
        {
          "internalType": "uint256",
          "name": "lastUpdate",
          "type": "uint256"
        },
        {
          "internalType": "bool",
          "name": "exists",
          "type": "bool"
        }
      ],
      "stateMutability": "view",
      "type": "function"
    },
    {
      "inputs": [],
      "name": "owner",
      "outputs": [
        {
          "internalType": "address",
          "name": "",
          "type": "address"
        }
      ],
      "stateMutability": "view",
      "type": "function"
    },
    {
      "inputs": [
        {
          "internalType": "bytes32",
          "name": "marketId",
          "type": "bytes32"
        }
      ],
      "name": "registerMarket",
      "outputs": [],
      "stateMutability": "nonpayable",
      "type": "function"
    },
    {
      "inputs": [],
      "name": "renounceOwnership",
      "outputs": [],
      "stateMutability": "nonpayable",
      "type": "function"
    },
    {
      "inputs": [
        {
          "internalType": "address",
          "name": "_keeper",
          "type": "address"
        }
      ],
      "name": "setKeeper",
      "outputs": [],
      "stateMutability": "nonpayable",
      "type": "function"
    },
    {
      "inputs": [
        {
          "internalType": "bytes32",
          "name": "marketId",
          "type": "bytes32"
        },
        {
          "internalType": "uint8",
          "name": "thresholdLevel",
          "type": "uint8"
        },
        {
          "internalType": "bool",
          "name": "autoAlert",
          "type": "bool"
        }
      ],
      "name": "setUserConfig",
      "outputs": [],
      "stateMutability": "nonpayable",
      "type": "function"
    },
    {
      "inputs": [
        {
          "internalType": "address",
          "name": "newOwner",
          "type": "address"
        }
      ],
      "name": "transferOwnership",
      "outputs": [],
      "stateMutability": "nonpayable",
      "type": "function"
    },
    {
      "inputs": [
        {
          "internalType": "address",
          "name": "user",
          "type": "address"
        },
        {
          "internalType": "bytes32",
          "name": "marketId",
          "type": "bytes32"
        }
      ],
      "name": "triggerAlertForUser",
      "outputs": [],
      "stateMutability": "nonpayable",
      "type": "function"
    },
    {
      "inputs": [
        {
          "internalType": "bytes32",
          "name": "marketId",
          "type": "bytes32"
        },
        {
          "internalType": "uint8",
          "name": "newLevel",
          "type": "uint8"
        }
      ],
      "name": "updateRisk",
      "outputs": [],
      "stateMutability": "nonpayable",
      "type": "function"
    },
    {
      "inputs": [
        {
          "internalType": "address",
          "name": "",
          "type": "address"
        },
        {
          "internalType": "bytes32",
          "name": "",
          "type": "bytes32"
        }
      ],
      "name": "userConfigs",
      "outputs": [
        {
          "internalType": "uint8",
          "name": "thresholdLevel",
          "type": "uint8"
        },
        {
          "internalType": "bool",
          "name": "autoAlert",
          "type": "bool"
        },
        {
          "internalType": "bool",
          "name": "exists",
          "type": "bool"
        }
      ],
      "stateMutability": "view",
      "type": "function"
    }
  ],
  "bytecode": "0x60806040523480156200001157600080fd5b50604051620018e2380380620018e2833981810160405281019062000037919062000290565b33600073ffffffffffffffffffffffffffffffffffffffff168173ffffffffffffffffffffffffffffffffffffffff1603620000ad5760006040517f1e4fbdf7000000000000000000000000000000000000000000000000000000008152600401620000a49190620002d3565b60405180910390fd5b620000be816200016260201b60201c565b5080600360006101000a81548173ffffffffffffffffffffffffffffffffffffffff021916908373ffffffffffffffffffffffffffffffffffffffff1602179055508073ffffffffffffffffffffffffffffffffffffffff16600073ffffffffffffffffffffffffffffffffffffffff167f068b48a2fe7f498b57ff6da64f075ae658fde8d77124b092e62b3dc58d91ce3560405160405180910390a350620002f0565b60008060009054906101000a900473ffffffffffffffffffffffffffffffffffffffff169050816000806101000a81548173ffffffffffffffffffffffffffffffffffffffff021916908373ffffffffffffffffffffffffffffffffffffffff1602179055508173ffffffffffffffffffffffffffffffffffffffff168173ffffffffffffffffffffffffffffffffffffffff167f8be0079c531659141344cd1fd0a4f28419497f9722a3daafe3b4186f6b6457e060405160405180910390a35050565b600080fd5b600073ffffffffffffffffffffffffffffffffffffffff82169050919050565b600062000258826200022b565b9050919050565b6200026a816200024b565b81146200027657600080fd5b50565b6000815190506200028a816200025f565b92915050565b600060208284031215620002a957620002a862000226565b5b6000620002b98482850162000279565b91505092915050565b620002cd816200024b565b82525050565b6000602082019050620002ea6000830184620002c2565b92915050565b6115e280620003006000396000f3fe608060405234801561001057600080fd5b50600436106100b45760003560e01c80638da5cb5b116100715780638da5cb5b14610165578063aced166114610183578063b144ed05146101a1578063b7649d53146101d3578063e985b378146101ef578063f2fde38b1461020b576100b4565b80630df1d5ed146100b957806365301437146100d55780636b572908146100f1578063715018a61461010d578063748747e6146101175780637564912b14610133575b600080fd5b6100d360048036038101906100ce9190610ff6565b610227565b005b6100ef60048036038101906100ea9190611081565b610346565b005b61010b60048036038101906101069190611132565b610631565b005b610115610808565b005b610131600480360381019061012c9190611185565b61081c565b005b61014d60048036038101906101489190610ff6565b6108e4565b60405161015c939291906111e9565b60405180910390f35b61016d610928565b60405161017a919061122f565b60405180910390f35b61018b610951565b604051610198919061122f565b60405180910390f35b6101bb60048036038101906101b69190611081565b610977565b6040516101ca9392919061124a565b60405180910390f35b6101ed60048036038101906101e89190610ff6565b6109d5565b005b61020960048036038101906102049190611281565b610be3565b005b61022560048036038101906102209190611185565b610de2565b005b61022f610e68565b6001600082815260200190815260200160002060020160009054906101000a900460ff1615610293576040517f08c379a000000000000000000000000000000000000000000000000000000000815260040161028a9061131e565b60405180910390fd5b6040518060600160405280600060ff168152602001428152602001600115158152506001600083815260200190815260200160002060008201518160000160006101000a81548160ff021916908360ff1602179055506020820151816001015560408201518160020160006101000a81548160ff021916908315150217905550905050807fd4a2ffd4212ea97bb981aae1f4a20d5170df470d2ed811c1b393882bc1d9f0fa60405160405180910390a250565b600360009054906101000a900473ffffffffffffffffffffffffffffffffffffffff1673ffffffffffffffffffffffffffffffffffffffff163373ffffffffffffffffffffffffffffffffffffffff1614806103d457506103a5610928565b73ffffffffffffffffffffffffffffffffffffffff163373ffffffffffffffffffffffffffffffffffffffff16145b610413576040517f08c379a000000000000000000000000000000000000000000000000000000000815260040161040a9061138a565b60405180910390fd5b6000600260008473ffffffffffffffffffffffffffffffffffffffff1673ffffffffffffffffffffffffffffffffffffffff16815260200190815260200160002060008381526020019081526020016000206040518060600160405290816000820160009054906101000a900460ff1660ff1660ff1681526020016000820160019054906101000a900460ff161515151581526020016000820160029054906101000a900460ff16151515158152505090508060400151610509576040517f08c379a0000000000000000000000000000000000000000000000000000000008152600401610500906113f6565b60405180910390fd5b6000600160008481526020019081526020016000206040518060600160405290816000820160009054906101000a900460ff1660ff1660ff168152602001600182015481526020016002820160009054906101000a900460ff161515151581525050905080604001516105b1576040517f08c379a00000000000000000000000000000000000000000000000000000000081526004016105a890611462565b60405180910390fd5b816000015160ff16816000015160ff16101580156105d0575081602001515b1561062b57828473ffffffffffffffffffffffffffffffffffffffff167fe4a9781fd308ed7c706f80273d3a3732f965696099deba113c5fd0977deef471836000015142604051610622929190611482565b60405180910390a35b50505050565b6001600084815260200190815260200160002060020160009054906101000a900460ff16610694576040517f08c379a000000000000000000000000000000000000000000000000000000000815260040161068b90611462565b60405180910390fd5b60038260ff1611156106db576040517f08c379a00000000000000000000000000000000000000000000000000000000081526004016106d2906114f7565b60405180910390fd5b60405180606001604052808360ff168152602001821515815260200160011515815250600260003373ffffffffffffffffffffffffffffffffffffffff1673ffffffffffffffffffffffffffffffffffffffff168152602001908152602001600020600085815260200190815260200160002060008201518160000160006101000a81548160ff021916908360ff16021790555060208201518160000160016101000a81548160ff02191690831515021790555060408201518160000160026101000a81548160ff021916908315150217905550905050823373ffffffffffffffffffffffffffffffffffffffff167f930403535e46e4303efe1fa0a068cb04eab594e124346a2ec74b1d3327ea8c8b84846040516107fb929190611517565b60405180910390a3505050565b610810610e68565b61081a6000610eef565b565b610824610e68565b8073ffffffffffffffffffffffffffffffffffffffff16600360009054906101000a900473ffffffffffffffffffffffffffffffffffffffff1673ffffffffffffffffffffffffffffffffffffffff167f068b48a2fe7f498b57ff6da64f075ae658fde8d77124b092e62b3dc58d91ce3560405160405180910390a380600360006101000a81548173ffffffffffffffffffffffffffffffffffffffff021916908373ffffffffffffffffffffffffffffffffffffffff16021790555050565b60016020528060005260406000206000915090508060000160009054906101000a900460ff16908060010154908060020160009054906101000a900460ff16905083565b60008060009054906101000a900473ffffffffffffffffffffffffffffffffffffffff16905090565b600360009054906101000a900473ffffffffffffffffffffffffffffffffffffffff1681565b6002602052816000526040600020602052806000526040600020600091509150508060000160009054906101000a900460ff16908060000160019054906101000a900460ff16908060000160029054906101000a900460ff16905083565b6000600260003373ffffffffffffffffffffffffffffffffffffffff1673ffffffffffffffffffffffffffffffffffffffff16815260200190815260200160002060008381526020019081526020016000206040518060600160405290816000820160009054906101000a900460ff1660ff1660ff1681526020016000820160019054906101000a900460ff161515151581526020016000820160029054906101000a900460ff16151515158152505090508060400151610acb576040517f08c379a0000000000000000000000000000000000000000000000000000000008152600401610ac2906113f6565b60405180910390fd5b6000600160008481526020019081526020016000206040518060600160405290816000820160009054906101000a900460ff1660ff1660ff168152602001600182015481526020016002820160009054906101000a900460ff16151515158152505090508060400151610b73576040517f08c379a0000000000000000000000000000000000000000000000000000000008152600401610b6a90611462565b60405180910390fd5b816000015160ff16816000015160ff1610610bde57823373ffffffffffffffffffffffffffffffffffffffff167fe4a9781fd308ed7c706f80273d3a3732f965696099deba113c5fd0977deef471836000015142604051610bd5929190611482565b60405180910390a35b505050565b600360009054906101000a900473ffffffffffffffffffffffffffffffffffffffff1673ffffffffffffffffffffffffffffffffffffffff163373ffffffffffffffffffffffffffffffffffffffff161480610c715750610c42610928565b73ffffffffffffffffffffffffffffffffffffffff163373ffffffffffffffffffffffffffffffffffffffff16145b610cb0576040517f08c379a0000000000000000000000000000000000000000000000000000000008152600401610ca79061138a565b60405180910390fd5b6001600083815260200190815260200160002060020160009054906101000a900460ff16610d13576040517f08c379a0000000000000000000000000000000000000000000000000000000008152600401610d0a90611462565b60405180910390fd5b60038160ff161115610d5a576040517f08c379a0000000000000000000000000000000000000000000000000000000008152600401610d519061158c565b60405180910390fd5b806001600084815260200190815260200160002060000160006101000a81548160ff021916908360ff160217905550426001600084815260200190815260200160002060010181905550817f6be018d6ecf999c4363bd60210afb8dd897a96c248c6bb15bf3855fba56846878242604051610dd6929190611482565b60405180910390a25050565b610dea610e68565b600073ffffffffffffffffffffffffffffffffffffffff168173ffffffffffffffffffffffffffffffffffffffff1603610e5c5760006040517f1e4fbdf7000000000000000000000000000000000000000000000000000000008152600401610e53919061122f565b60405180910390fd5b610e6581610eef565b50565b610e70610fb3565b73ffffffffffffffffffffffffffffffffffffffff16610e8e610928565b73ffffffffffffffffffffffffffffffffffffffff1614610eed57610eb1610fb3565b6040517f118cdaa7000000000000000000000000000000000000000000000000000000008152600401610ee4919061122f565b60405180910390fd5b565b60008060009054906101000a900473ffffffffffffffffffffffffffffffffffffffff169050816000806101000a81548173ffffffffffffffffffffffffffffffffffffffff021916908373ffffffffffffffffffffffffffffffffffffffff1602179055508173ffffffffffffffffffffffffffffffffffffffff168173ffffffffffffffffffffffffffffffffffffffff167f8be0079c531659141344cd1fd0a4f28419497f9722a3daafe3b4186f6b6457e060405160405180910390a35050565b600033905090565b600080fd5b6000819050919050565b610fd381610fc0565b8114610fde57600080fd5b50565b600081359050610ff081610fca565b92915050565b60006020828403121561100c5761100b610fbb565b5b600061101a84828501610fe1565b91505092915050565b600073ffffffffffffffffffffffffffffffffffffffff82169050919050565b600061104e82611023565b9050919050565b61105e81611043565b811461106957600080fd5b50565b60008135905061107b81611055565b92915050565b6000806040838503121561109857611097610fbb565b5b60006110a68582860161106c565b92505060206110b785828601610fe1565b9150509250929050565b600060ff82169050919050565b6110d7816110c1565b81146110e257600080fd5b50565b6000813590506110f4816110ce565b92915050565b60008115159050919050565b61110f816110fa565b811461111a57600080fd5b50565b60008135905061112c81611106565b92915050565b60008060006060848603121561114b5761114a610fbb565b5b600061115986828701610fe1565b935050602061116a868287016110e5565b925050604061117b8682870161111d565b9150509250925092565b60006020828403121561119b5761119a610fbb565b5b60006111a98482850161106c565b91505092915050565b6111bb816110c1565b82525050565b6000819050919050565b6111d4816111c1565b82525050565b6111e3816110fa565b82525050565b60006060820190506111fe60008301866111b2565b61120b60208301856111cb565b61121860408301846111da565b949350505050565b61122981611043565b82525050565b60006020820190506112446000830184611220565b92915050565b600060608201905061125f60008301866111b2565b61126c60208301856111da565b61127960408301846111da565b949350505050565b6000806040838503121561129857611297610fbb565b5b60006112a685828601610fe1565b92505060206112b7858286016110e5565b9150509250929050565b600082825260208201905092915050565b7f4d61726b657420616c7265616479206578697374730000000000000000000000600082015250565b60006113086015836112c1565b9150611313826112d2565b602082019050919050565b60006020820190508181036000830152611337816112fb565b9050919050565b7f4e6f74206b65657065722f6f776e657200000000000000000000000000000000600082015250565b60006113746010836112c1565b915061137f8261133e565b602082019050919050565b600060208201905081810360008301526113a381611367565b9050919050565b7f4e6f20636f6e66696720666f7220757365720000000000000000000000000000600082015250565b60006113e06012836112c1565b91506113eb826113aa565b602082019050919050565b6000602082019050818103600083015261140f816113d3565b9050919050565b7f4d61726b6574206e6f7420726567697374657265640000000000000000000000600082015250565b600061144c6015836112c1565b915061145782611416565b602082019050919050565b6000602082019050818103600083015261147b8161143f565b9050919050565b600060408201905061149760008301856111b2565b6114a460208301846111cb565b9392505050565b7f496e76616c6964207468726573686f6c64000000000000000000000000000000600082015250565b60006114e16011836112c1565b91506114ec826114ab565b602082019050919050565b60006020820190508181036000830152611510816114d4565b9050919050565b600060408201905061152c60008301856111b2565b61153960208301846111da565b9392505050565b7f496e76616c6964206c6576656c00000000000000000000000000000000000000600082015250565b6000611576600d836112c1565b915061158182611540565b602082019050919050565b600060208201905081810360008301526115a581611569565b905091905056fea2646970667358221220dd01f55e52c46aed791184717235c0a2cee5fce6221bea35e9d43a587889f34264736f6c63430008140033",
  "linkReferences": {},
  "deployedLinkReferences": {}
}